:1000000015C1000044C1000042C1000040C1000011
:100010003EC100003CC100003AC1000038C10000F0
:1000200036C1000034C1000032C1000030C1000000
:100030002EC100002CC100002AC1000028C1000010
:1000400026C100005EC7000022C1000020C10000E0
:100050001EC100001CC100001AC10000C3C4000082
:1000600016C1000046C500001BC5000010C10000FD
:100070000EC100000CC100000AC1000008C1000050
:1000800013C7000004C1000002C1000000C100004D
:10009000FEC00000FCC00000FAC0000060C5000007
:1000A000F6C00000F4C00000D2C60000F0C000009E
:1000B000EEC00000ECC00000EAC000009BC60000DB
:1000C000E6C00000E4C00000E2C00000E0C00000A4
:1000D000DEC00000DCC00000DAC00000D8C00000B4
:1000E000D6C00000EC07EF07DE07E207E8072608A6
:1000F000F307F707FD07010805080B080F081308A9
:10010000260819081D0821080000210024002700E6
:100110002A002D0030003300010100000401070116
:100120000A0100002200250028002B002E003100CB
:10013000340002010000050108010B01000020004D
:100140002300260029002C002F00320000010000AF
:10015000030106010901050505050705080808084A
:10016000020202020A0A080804040404010101014F
:10017000010101010303030303030303040707074A
:100180000C0C0C0C0C0C0C0C0202020206060606EF
:10019000060606060B0B0B0B0B0B0B0B01021020BC
:1001A00020080810204010204080020102010804AD
:1001B0000201010204081020408080402010080441
:1001C000020180040201804020100804020108049A
:1001D00002010102040810204080010204081020DE
:1001E000408000000A0B02090C0D0E0807030401F1
:1001F00000000000000000000000000000000000FF
:1002000000000000000000000000000000001211CB
:1002100010000000000000000000000000000000CE
:100220000000000000000000EA0EE00E11241FBED6
:10023000CFEFD1E2DEBFCDBF00E00CBF12E0A0E007
:10024000B2E0EAE8FAE200E00BBF02C007900D92CC
:10025000AC37B107D9F725E0ACE7B2E001C01D9299
:10026000A830B207E1F711E0C5E1D1E000E006C037
:1002700021970109802FFE010E943310C431D1075C
:1002800080E00807A9F70E94480B0C943415B8CEFB
:10029000089508950895CF92DF92EF92FF920F9301
:1002A0001F93CF93DF936C017A018B01C0E0D0E004
:1002B000CE15DF0581F0D8016D918D01D601ED914C
:1002C000FC910190F081E02DC6011995892B11F068
:1002D0002196EECF7E01C701DF91CF911F910F9143
:1002E000FF90EF90DF90CF900895FC01538D448DE7
:1002F000252F30E0842F90E0821B930B541710F0D1
:10030000CF96089501970895FC01918D828D9817DD
:1003100061F0828DDF01A80FB11D5D968C91928DE9
:100320009F5F9F73928F90E008958FEF9FEF0895E6
:10033000FC01918D828D981731F0828DE80FF11DAF
:10034000858D90E008958FEF9FEF0895FC01918DCA
:10035000228D892F90E0805C9F4F821B91098F73C3
:100360009927089580E493E0F1DF21E0892B09F4D7
:1003700020E0822F0895FC01848DDF01A80FB11DBC
:10038000A35ABF4F2C91848D90E001968F739927CB
:10039000848FA689B7892C93A089B1898C918370A9
:1003A00080648C93938D848D981306C00288F389A2
:1003B000E02D80818F7D80830895EF92FF920F93CF
:1003C0001F93CF93DF93EC0181E0888F9B8D8C8D01
:1003D000981305C0E889F989808185FD25C0F62E2E
:1003E0000B8D10E00F5F1F4F0F731127E02E8C8DC8
:1003F000E8120BC00FB607FCFACFE889F9898081B3
:1004000085FFF5CFCE01B7DFF2CF8B8DFE01E80F70
:10041000F11DE35AFF4FF0829FB7F8940B8FEA89E2
:10042000FB89808180620AC09FB7F894EE89FF89BA
:100430006083E889F98980818370806480839FBFAD
:1004400081E090E0DF91CF911F910F91FF90EF90AD
:100450000895CF93DF93EC01888D8823C1F0EA895A
:10046000FB89808185FD05C0A889B9898C9186FDAD
:100470000EC00FB607FCF5CF808185FFF2CFA889AB
:10048000B9898C9185FFEDCFCE0175DFE8CFDF9183
:10049000CF91089580E090E0892B19F063DF8111FE
:1004A00025C080E090E0892B41F080E090E0892B2E
:1004B00021F00E94000081111CC080E090E0892B97
:1004C00041F080E090E0892B21F00E940000811132
:1004D00013C080E090E0892BA1F080E090E0892BB0
:1004E00081F00E94000081110AC008950E9400005E
:1004F000D8CF0E940000E1CF0E940000EACF0C9408
:100500000000089585ED8093BC008091BC0084FDBF
:10051000FCCF10922F0308954091E202262F30E085
:10052000240F311D21323105DCF420912F032430BA
:10053000C9F4FC0180E090E0861758F43091E202A3
:100540002191DC01AE53BD4FA30FB11D2C93019639
:10055000F3CF8091E202680F6093E20280E0089599
:1005600081E0089582E008950895E0913303809139
:100570003203E81730F4F0E0EE55FD4F808190E053
:1005800008958FEF9FEF0895909133038091320388
:10059000981750F4E92FF0E0EE55FD4F208130E040
:1005A0009F5F9093330302C02FEF3FEFC90108957F
:1005B0008091320390E020913303821B91090895CA
:1005C000CF92DF92EF92FF920F931F93CF93DF931F
:1005D0007C01CB018A012091A102222389F0EB0149
:1005E0006B01C40ED51ECC15DD0561F06991D701F4
:1005F000ED91FC910190F081E02DC7011995F3CFA9
:10060000642F8ADFC801DF91CF911F910F91FF9076
:10061000EF90DF90CF900895CF93DF931F92CDB7E7
:10062000DEB769832091A1022223D1F0209130030B
:10063000203240F021E030E0FC013383228380E06F
:1006400090E014C080913103E82FF0E0EF57FD4FA8
:10065000998190838F5F809331038093300304C02E
:1006600061E0CE01019658DF81E090E00F90DF91CC
:10067000CF910895CF93FC01C48121E02093A10282
:10068000C093800210923103109230038385682B4F
:100690008DED93E0C1DF90913003913208F045C0B9
:1006A00080912F038111FCCF82E080932F0381E0A2
:1006B00080932E038FEF809305031092270390936E
:1006C0002603A1E8B2E0E6E0F3E080E0981721F02D
:1006D0002D9121938F5FFACF1092280380912803E8
:1006E000CC0FC82BC093280380912D03813061F477
:1006F00010922D03809128038093BB008091BC0051
:1007000083FDF8CF85EC01C085EE8093BC0080911D
:100710002F038230E1F3809105038F3F31F0809108
:100720000503803211F0809105031092310310927D
:1007300030031092A102CF9108950F931F93CF938E
:100740008C01C62F97DF6C2F6460C80193DF6C2F7C
:100750006B7FC8018FDF83EC90E00197F1F7CF91B9
:100760001F910F91089580E090E00895CF93DF935B
:10077000EC0188819981009711F00E94D3101982B1
:1007800018821D821C821B821A82DF91CF910895EC
:10079000862F642F35C5CF92DF92EF92FF920F9391
:1007A0001F93CF93DF936C018B017A01EC01C45846
:1007B000DD4F888187FF04C0FB011182108224C0B5
:1007C0002CE02C9DC0012D9D900D11242881AC01A1
:1007D000420F511D27FD5A952091790430E04217B0
:1007E000530794F42881AC01420F511D27FD5A95FF
:1007F0009A01FA01EE0FFF1F2E0F3F1FF901E7517B
:10080000FC4F208126FD19C088818F5F88832CE0F2
:100810002C9DC0012D9D900D11242881AC01420F0B
:10082000511D27FD5A952091790430E04217530756
:10083000B4F428812C303CF112C02881820F911D24
:1008400027FD9A95FC01EE0FFF1F8E0F9F1FFC01E5
:10085000E751FC4F808160E08F73D2D4D5CFF8018F
:1008600080819181049680349C4918F480E49CE94D
:1008700004C0F801808191810496F70191838083FF
:100880008FEF888344C0F801408151812881BC01E9
:10089000620F711D27FD7A959B01FB01EE0FFF1F73
:1008A0002E0F3F1FF901E751FC4F21813281240FA8
:1008B000351FF701318320832881AC01420F511D80
:1008C00027FD5A959A01FA01EE0FFF1F2E0F3F1FC9
:1008D000F901E751FC4F208126FF19C02881820FC2
:1008E000911D27FD9A95FC01EE0FFF1F8E0F9F1F94
:1008F000FC01E751FC4F808161E08F73DF91CF9164
:100900001F910F91FF90EF90DF90CF9079C4DF910E
:10091000CF911F910F91FF90EF90DF90CF900895AE
:10092000862F642F9BC40E943C120F931F93CF937A
:10093000DF93EC0188819981009729F02A813B811E
:100940002617370788F48B016F5F7F4F0E945C1179
:10095000009761F0998388831B830A832C813D81F2
:10096000232B11F4FC01108281E001C080E0DF91B3
:10097000CF911F910F910895EF92FF920F931F93C4
:10098000CF93DF93EC017B018A01BA01CEDF8111A5
:1009900003C0CE01EBDE07C01D830C83B701888145
:1009A00099810E945212CE01DF91CF911F910F9138
:1009B000FF90EF900895CF93DF93EC0161157105DF
:1009C00051F0FB0101900020E9F73197AF01461B80
:1009D000570BD2DF01C0CADECE01DF91CF9108955F
:1009E000862FE6C31F920F920FB60F9211242F93FA
:1009F0003F938F939F93AF93BF93809138039091D0
:100A00003903A0913A03B0913B033091370323E0BF
:100A1000230F2D3720F40196A11DB11D05C026E836
:100A2000230F0296A11DB11D209337038093380335
:100A300090933903A0933A03B0933B0380913C0316
:100A400090913D03A0913E03B0913F030196A11DFB
:100A5000B11D80933C0390933D03A0933E03B0935C
:100A60003F03BF91AF919F918F913F912F910F9035
:100A70000FBE0F901F901895FC01118210821382F7
:100A80001282158214826115710549F0FB010190F3
:100A90000020E9F73197AF01461B570B6DCF089542
:100AA0001F920F920FB60F9211240BB60F922F9335
:100AB0003F934F935F936F937F938F939F93AF93E6
:100AC000BF93EF93FF9380E493E055DCFF91EF91A8
:100AD000BF91AF919F918F917F916F915F914F9156
:100AE0003F912F910F900BBE0F900FBE0F901F9054
:100AF00018951F920F920FB60F9211240BB60F92FA
:100B00002F938F939F93EF93FF93E0915003F09176
:100B100051038081E0915603F091570382FD12C08A
:100B20009081809159038F5F8F7320915A038217B0
:100B300051F0E0915903F0E0E05CFC4F958F809319
:100B4000590301C08081FF91EF919F918F912F9167
:100B50000F900BBE0F900FBE0F901F9018951F9215
:100B60000F920FB60F9211240BB60F922F933F9353
:100B70004F935F936F937F938F939F93AF93BF93A5
:100B8000EF93FF938091B900887F803609F49CC071
:100B900068F5883209F45BC090F4803109F454C0E0
:100BA00038F4882309F4F6C0883009F44DC0F5C044
:100BB000883109F44CC0803209F45DC0EEC0803445
:100BC00009F468C048F4803309F455C0883309F04B
:100BD000E4C080930503D8C0803509F44FC0883540
:100BE00009F45DC0883409F0D8C0D6C0883909F44A
:100BF000C7C0A8F4883709F467C038F4883609F408
:100C000063C0803709F460C0C8C0883809F4B8C030
:100C1000803909F45FC0803809F0BFC05BC0803BF9
:100C200009F486C038F4803A09F466C0883A09F4B9
:100C30007FC0B3C0803C09F4A7C0883C09F4A4C0BD
:100C4000883B09F48AC0A9C08091280310C0909104
:100C5000270380912603981770F5E091270381E020
:100C60008E0F80932703F0E0EA5FFC4F8081809332
:100C7000BB0085EC86C0809305038EC0E0912703FE
:100C800081E08E0F809327038091BB00F0E0EA5F44
:100C9000FC4F808390912703809126036EC0E091E2
:100CA000270381E08E0F809327038091BB00F0E043
:100CB000EA5FFC4F808380912E0381116DC081E03B
:100CC00080932D0384EA61C083E080932F03109208
:100CD0000403CFCF80910403803208F051C0E0912B
:100CE000040381E08E0F809304038091BB00F0E049
:100CF000EC51FD4F8083BDCF85EC8093BC001092FA
:100D00002F0380910403803230F4E0910403F0E07B
:100D1000EC51FD4F10826091040370E0E0912903D3
:100D2000F0912A0384EE92E019951092040335C0E5
:100D300084E080932F031092E3021092E202E0918C
:100D40002B03F0912C0319958091E202811105C0CB
:100D500081E08093E2021092C202E091E30281E01E
:100D60008E0F8093E302F0E0EE53FD4F808180937D
:100D7000BB009091E3028091E202981708F479CFCA
:100D800085E88093BC0009C085EC8093BC0010927C
:100D90002F0303C010920503B5DBFF91EF91BF91C4
:100DA000AF919F918F917F916F915F914F913F9103
:100DB0002F910F900BBE0F900FBE0F901F901895A4
:100DC0000F931F93CF93DF938C01C62FD42F607F97
:100DD000642BB3DC80E1C89FB00111246D2BC801E6
:100DE000DF91CF911F910F91A8CC41E0E9DF81E025
:100DF00090E008951F920F920FB60F9211240BB638
:100E00000F922F933F934F935F936F937F938F93A3
:100E10009F93AF93BF93EF93FF9348E251E064E257
:100E200071E080E090E0B7DCFF91EF91BF91AF916E
:100E30009F918F917F916F915F914F913F912F91F2
:100E40000F900BBE0F900FBE0F901F9018951F9222
:100E50000F920FB60F9211240BB60F922F933F9360
:100E60004F935F936F937F938F939F93AF93BF93B2
:100E7000EF93FF9348EA50E064EA70E083E090E08B
:100E80008ADCFF91EF91BF91AF919F918F917F91FC
:100E90006F915F914F913F912F910F900BBE0F90EB
:100EA0000FBE0F901F9018951F920F920FB60F92C2
:100EB00011240BB60F922F933F934F935F936F9331
:100EC0007F938F939F93AF93BF93EF93FF9348E9E3
:100ED00050E064E970E082E090E05DDCFF91EF912A
:100EE000BF91AF919F918F917F916F915F914F9142
:100EF0003F912F910F900BBE0F900FBE0F901F9040
:100F000018951F920F920FB60F9211240BB60F92E5
:100F10002F933F934F935F936F937F938F939F9301
:100F2000AF93BF93EF93FF9348E850E064E870E01D
:100F300081E090E030DCFF91EF91BF91AF919F9104
:100F40008F917F916F915F914F913F912F910F9072
:100F50000BBE0F900FBE0F901F90189596E0899FC3
:100F6000D0011124A757BB4F90967C936E935F9747
:100F700091E091969C9391979091F504E091F604FD
:100F8000F091F704992339F0309751F0811108C09E
:100F90008091A50404C0309719F05C968C91199447
:100FA000089590E0FC013197E231F10508F04EC060
:100FB0008827EE58FF4F8F4F0C943310809180009C
:100FC0008F7703C0809180008F7D8093800008958B
:100FD00080918000877FF9CF84B58F7702C084B578
:100FE0008F7D84BD08958091B0008F7703C080917C
:100FF000B0008F7D8093B0000895809190008F772E
:1010000007C0809190008F7D03C080919000877F02
:101010008093900008958091A0008F7707C0809101
:10102000A0008F7D03C08091A000877F8093A000E7
:101030000895809120018F7707C0809120018F7DD6
:1010400003C080912001877F8093200108953FB7DE
:10105000F89480913C0390913D03A0913E03B091A0
:101060003F0326B5A89B05C02F3F19F00196A11D8F
:10107000B11D3FBFBA2FA92F982F8827820F911D2E
:10108000A11DB11DBC01CD0142E0660F771F881F75
:10109000991F4A95D1F7089540E061E08DE794E00B
:1010A0008FDE8BE39FE10197F1F70895CF92DF92F6
:1010B000EF92FF92DC01A03282E0B8070CF03CC056
:1010C000B7FD06C0A53BB1052CF0A4EBB0E002C013
:1010D000A0E0B0E080917B0428E830E06901C81A04
:1010E000D10887FDD394CC0CDD1CCC0CDD1C0D2C61
:1010F000000CEE08FF0880917C0428E532E0281BF4
:10110000310987FD3395220F331F220F331FA901A9
:10111000330F660B770B9A01AB012C193D094E0971
:101120005F095ED724EB30E040E050E033D7C20ED9
:10113000D31EE41EF51ED60190917A04903398F5E3
:1011400080917B0448E850E0481B510987FD539586
:10115000440F551F440F551FA417B5078CF08091FD
:101160007C0428E532E0281B310987FD3395220FE6
:10117000331F220F331FAD012A173B070CF4A901BF
:1011800042505109440F551F2FB7F894892F90E012
:10119000FC01EE0FFF1F8E0F9F1FFC01E751FC4F5C
:1011A000528341832FBFFF90EF90DF90CF9008953F
:1011B000CF93DF93282F30E0F901EE51FE4F849159
:1011C000F901E456FE4FD491F901EA5AFE4FC49159
:1011D000CC2389F08111E5DEEC2FF0E0EE0FFF1F4C
:1011E000E45CFE4FA591B491EC91ED2381E090E099
:1011F00021F480E002C080E090E0DF91CF9108957B
:101200001F93CF93DF93282F30E0F901EE51FE4F6B
:101210008491F901E456FE4FD491F901EA5AFE4F48
:10122000C491CC23B9F0162F8111BBDEEC2FF0E076
:10123000EE0FFF1FEE5DFE4FA591B4919FB7F8949E
:10124000111104C08C91D095D82302C0EC91DE2BF3
:10125000DC939FBFDF91CF911F910895CF93DF93D0
:1012600090E0FC01E456FE4F2491FC01EA5AFE4F47
:101270008491882361F190E0880F991FFC01E85F59
:10128000FE4FC591D491FC01EE5DFE4FA591B49146
:10129000611109C09FB7F8948881209582238883C3
:1012A000EC912E230BC0623061F49FB7F8948881D3
:1012B000322F309583238883EC912E2B2C939FBF64
:1012C00006C08FB7F894E8812E2B28838FBFDF915B
:1012D000CF9108958F929F92AF92BF92CF92DF925B
:1012E000EF92FF926B017C01B2DE4B015C01C114F5
:1012F000D104E104F104E9F0AADEDC01CB01881994
:101300009909AA09BB09883E9340A105B10578F364
:1013100021E0C21AD108E108F10888EE880E83E0C6
:10132000981EA11CB11CC114D104E104F10421F7E1
:10133000DECFFF90EF90DF90CF90BF90AF909F9067
:101340008F9008952FB7F894609138037091390306
:1013500080913A0390913B032FBF08950F931F9301
:10136000CF93DF93C82FD62F86E0C89FF0011124BA
:10137000E757FB4F11A2878D90A181309105C9F0ED
:1013800040F08230910591F10397D1F560E070E073
:1013900031C06623A9F161E070E08C2FDFDDD2DF80
:1013A0006093E1047093E2048093E3049093E40477
:1013B00027C0C8DF0091E1041091E2042091E3040A
:1013C0003091E404AB01BC01401B510B620B730B69
:1013D0008091F3049091F404A0E0B0E084179507A5
:1013E000A607B70718F462E070E004C0D11108C086
:1013F00063E070E08C2FDF91CF911F910F91AECD04
:10140000DF91CF911F910F9108956F927F928F92EC
:101410009F92AF92BF92CF92DF92EF92FF920F9383
:101420001F93CF93DF9381E08093F5048BDF0091CE
:10143000E5041091E6042091E7043091E804AB0143
:10144000BC01401B510B620B730B8091F104909116
:10145000F204A0E0B0E084179507A607B70708F0EC
:10146000DFC0C0E08091EF04C81730F0712C812CF0
:10147000912C540183943CC0E091EB04F091EC0476
:10148000EC0FF11D62E08081E9DECF5FEBCFC62D6E
:10149000D0E0E091EB04F091EC04EC0FFD1F8081B3
:1014A00087DE2496CC0FDD1FC757DB4F892B09F051
:1014B00047C0888199818C299D2999838883639469
:1014C0008091EF04681618F3E091ED04F091EE04BA
:1014D000E00FF11F61E0808193DE8091ED04909137
:1014E000EE04FC01E00FF11F60E08081B7DE739431
:1014F0008091F004781648F5072D10E0E091ED0496
:10150000F091EE04E00FF11F61E08081A7DEE09131
:10151000ED04F091EE04E00FF11F60E0808170DED9
:10152000D501C401072C04C0880F991FAA1FBB1F37
:101530000A94D2F76C017C01E094F094612CC0CF46
:10154000888199818E219F21B8CF29E8E22E24E05D
:10155000F22EF7018FEF9FEF278D30A1232B21F47F
:10156000148E968F858F11A2369624E0E53CF20703
:1015700099F7C0E096E0D92E8091EF04C81758F58E
:10158000D0E00C2F10E0000F111F0F561B4F2091C1
:10159000F004D217F0F4F801408151810D2E02C001
:1015A000569547950A94E2F7642F6170C29F9001A7
:1015B00011242D0F311DE9E8F4E080E0A58DB68DF2
:1015C0002A173B0709F44CC08F5F36968A30B1F773
:1015D0002BC0CF5FD1CFC0E0F70181A18111C1E065
:1015E000F6E0EF0EF11C25ECE21624E0F206A1F77E
:1015F000A9DE6093E5047093E6048093E70490937A
:10160000E804CC2369F08091AA04882349F08091F2
:10161000A8049091A904019719F48091A50429C008
:101620001092F50480E025C040FF1BC0E9E8F4E01B
:1016300080E090E0448D411116C0E091E904F09102
:10164000EA04E20FF31F4081D89EF001D99EF00D0D
:101650001124E757FB4F448F368F258F10A2178E2A
:101660007DDEDF5F94CF019636968A30910511F7C3
:10167000F8CFDF91CF911F910F91FF90EF90DF9006
:10168000CF90BF90AF909F908F907F906F90089574
:10169000CF93DF93CDB7DEB7C254D1090FB6F8941C
:1016A000DEBF0FBECDBF789484B5826084BD84B5A3
:1016B000816084BD85B5826085BD85B5816085BD4D
:1016C00080916E00816080936E0010928100809105
:1016D000810082608093810080918100816080938D
:1016E0008100809180008160809380008091B100B2
:1016F00084608093B1008091B00081608093B000DD
:10170000809191008260809391008091910081602E
:1017100080939100809190008160809390008091EF
:10172000A10082608093A1008091A10081608093DC
:10173000A1008091A00081608093A0008091210190
:101740008260809321018091210181608093210139
:101750008091200181608093200180917A008460D3
:1017600080937A0080917A00826080937A008091E1
:101770007A00816080937A0080917A0080688093FB
:101780007A001092C100E0915003F091510382E081
:101790008083E0914C03F0914D031082E0914E0361
:1017A000F0914F038FEC808310925803E091540323
:1017B000F091550386E08083E0915203F09153034A
:1017C000808180618083E0915203F0915303808196
:1017D00088608083E0915203F09153038081806898
:1017E0008083E0915203F091530380818F7D808349
:1017F00080917A04803308F050C061E082E02EDDF1
:1018000080917A04E82FF0E09F01220F331FE20F4E
:10181000F31FE751FC4F9081907C9260908310926F
:101820007B0410927C046CE012D42CE0829FB00107
:10183000112440E050E09B01240F351FF901EE0F09
:10184000FF1F2E0F3F1FF901E751FC4F908196FDBE
:1018500017C04F5F5F4F4C30510569F7813009F079
:101860006CC21092800082E080938100109285000B
:1018700010928400B19A80916F00826080936F0013
:10188000E0917A04F0E0CF01880F991FE80FF91F6B
:10189000E751FC4F80818064808361E083E0DEDC7F
:1018A00061E084E0DBDC61E085E0D8DC10923303AA
:1018B00010923203109231031092300310922F03D2
:1018C00081E080932E0310922D0361E084E198DC87
:1018D00061E085E195DC8091B9008E7F8093B9004D
:1018E0008091B9008D7F8093B90088E48093B8001F
:1018F00085E48093BC0088E491E090932C0380936E
:101900002B0389E491E090932A038093290310929A
:10191000820480918604823018F098E090938204CB
:1019200090918704992339F0813029F480918204C1
:1019300084608093820462E370E080E090E0CADC1F
:10194000609188048DE794E00E943A0368EE73E0AA
:1019500080E090E0BFDC60E38DE794E00E949D03AF
:101960000BE416E4C8010197F1F760E38DE794E01A
:101970000E949D03C8010197F1F760E38DE794E0B1
:101980000E949D0383E592E00197F1F760E28DE705
:1019900094E00E949D0360918204606240E08DE7C4
:1019A00094E00EDA84E08093830440E06CE08DE7FD
:1019B00094E006DA71DB82E08093840440E066E024
:1019C0008DE794E0FDD940E062E08DE794E0F8D93E
:1019D0008BE39FE10197F1F788E08093880460E052
:1019E0008DE794E00E943A0385E0B82E9EE5C92E6B
:1019F00092E0D92ECE0101967C01A0903603A11071
:101A00007EC184EB90E052DB6AE070E080E090E021
:101A100061DC80E090E04ADB6AE070E080E090E02A
:101A200059DC80913403909135030597A4F18ADC49
:101A30002B013C0131DB4AE050E063E572E08DE7C9
:101A400094E00E944B016AE070E080E090E042DCAC
:101A500061E083E0D5DB6AE070E080E090E03ADCB2
:101A600060E083E0CDDB6EDCDC01CB0184199509FD
:101A7000A609B70980349D40A340B105D8F20CDB1C
:101A80006DE572E088EF94E00E94DB04109235036C
:101A9000109234034FC1B9DC882309F44BC1009183
:101AA000FC041091FD04833209F451C08A3209F01C
:101AB000B3C0101611060CF014C16DE572E0C70139
:101AC0000E943C058091FC049091FD040097E9F090
:101AD000015011098017910708F48C01E091F80476
:101AE000F091F904E00FF11FA08010826091F804DA
:101AF0007091F904C7010E94DB048091F804909171
:101B0000F904FC01E00FF11FA0828091F80490918C
:101B1000F904009739F069817A816115710509F03E
:101B20003DC141D389819A819093F9048093F8044F
:101B30008B819C819093FB048093FA048D819E811C
:101B40009093FD048093FC041A821982C7C080918F
:101B50000205909103050817190759F58091FE04B5
:101B60009091FF046091F8047091F904009719F0C6
:101B700061157105A9F46115710551F00115110583
:101B800039F0FB01808190E091958195910909C020
:101B9000009769F0012B59F0FC01808190E001C0B1
:101BA00078D4AA24A394892B21F0A12C02C0AA24C2
:101BB000A394A0923603A11094C080913403909115
:101BC0003503019690933503809334031F92BF929F
:101BD000082E000C990B9F938F93DF92CF92FF9268
:101BE000EF9267D459DAF70101900020E9F73197B5
:101BF000AF014E195F09B7018DE794E00E944B01D8
:101C00006DE572E088EF94E00E94DB040FB6F89473
:101C1000DEBF0FBECDBF8EC01A8219821C821B820E
:101C20001E821D828DAF1EAEBE01635C7F4FC70159
:101C30000E94DB041EAE1DAE21961FAE1EAE219784
:101C400023961FAE1EAE23976091F8047091F9049D
:101C50006115710541F04091FC045091FD04CE01E5
:101C6000CD960E94BC048D819E8169807A8061142A
:101C7000710409F48EC00097E1F023960EAD1FADFC
:101C80002397080F191FB801CE01CD960E94950425
:101C9000882309F47EC02DAD3EAD23968EAD9FAD59
:101CA0002397B301820F931FFDD323961FAF0EAF6F
:101CB00023976DAD7EAD6115710549F023964EAD4C
:101CC0005FAD239788EF94E00E94BC0404C088EFC6
:101CD00094E00E94B6038DAD9EAD65D289819A8154
:101CE00062D2DAD94091FC045091FD046091F8046D
:101CF0007091F9048DE794E00E944B011BC0CCD990
:101D000046E050E06DE672E08DE794E00E944B0102
:101D100080E090E0CBD979DB833261F41092360316
:101D200010923503109234036DE572E088EF94E071
:101D30000E94DB040E944A0260CE823061F410925D
:101D4000900080939100109295001092940088BBAF
:101D50008093710095CD833069F41092A00082E0E9
:101D60008093A1001092A5001092A40089BB8093DB
:101D7000720086CD811184CD1092200182E0809383
:101D8000210110922501109224018ABB80937300D7
:101D900077CDCE01CD960E94B6038BCF4091FA0449
:101DA0005091FB042D813E814217530708F4B9CEB0
:101DB00079D38D819E819093FD048093FC048ECF16
:101DC0008091F8049091F904EED18091FE049091F5
:101DD000FF04E9C1109243031092420388EE93E09E
:101DE000A0E0B0E08093440390934503A0934603A2
:101DF000B093470321E132E0309341032093400345
:101E000025EC30E030934D0320934C0324EC30E07C
:101E100030934F0320934E0320EC30E03093510376
:101E20002093500321EC30E030935303209352036E
:101E300022EC30E0309355032093540326EC30E03D
:101E400030935703209356031092590310925A036C
:101E500010925B0310925C031092E0031092DF0378
:101E60008093E1039093E203A093E303B093E40330
:101E700083E292E09093DE038093DD0364E772E0F7
:101E80008EEF94E00E943C056DE572E088EF94E0EF
:101E90000E943C0510928B0410928F0410928E04C5
:101EA0001092900481E492E090938A0480938904D4
:101EB000E9E8F4E085EC94E0148E10A2178E11A2EC
:101EC00036968E179F07C1F783E092E09093EC045B
:101ED0008093EB0480E092E09093EE048093ED0415
:101EE00084E08093EF0483E08093F00487E492E041
:101EF0009093EA048093E9048AE090E09093F204DE
:101F00008093F10484EF91E09093F4048093F304C0
:101F10001092F7041092F6041092E5041092E60471
:101F20001092E7041092E8041092F50410928004D5
:101F300010927F0485E392E090937E0480937D0469
:101F40008FE38093810480E18093850482E0809315
:101F500086041092870488E0809388048091790435
:101F60008033A0F491E0980F9093790480937A04E1
:101F700090E0FC01EE0FFF1F8E0F9F1FFC01E75149
:101F8000FC4F88EB9BE09283818308958FEF8093D1
:101F90007A040895052E97FB16F400940FD057FD90
:101FA00005D024D007FC02D046F408C050954095D7
:101FB000309521953F4F4F4F5F4F089590958095F5
:101FC000709561957F4F8F4F9F4F089531D0A59F9A
:101FD000900DB49F900DA49F800D911D1124089524
:101FE000B7FFF4CFF3DF821B930B0895A1E21A2E03
:101FF000AA1BBB1BFD010DC0AA1FBB1FEE1FFF1FAD
:10200000A217B307E407F50720F0A21BB30BE40BFC
:10201000F50B661F771F881F991F1A9469F7609543
:102020007095809590959B01AC01BD01CF010895FD
:10203000A29FB001B39FC001A39F700D811D112409
:10204000911DB29F700D811D1124911D0895991B42
:1020500079E004C0991F961708F0961B881F7A959F
:10206000C9F780950895EE0FFF1F881F8BBF07905B
:10207000F691E02D19940F931F93CF93DF93823045
:10208000910510F482E090E0E0910605F0910705DB
:1020900020E030E0A0E0B0E0309719F140815181BC
:1020A0000281138148175907C8F08417950769F40E
:1020B000109731F012960C93129713961C9327C029
:1020C000009306051093070522C02115310519F06C
:1020D0004217530718F49A01BD01EF01DF01F8011F
:1020E000DBCF21153105F9F0281B390B24303105E0
:1020F00080F48A819B816115710521F0FB01938336
:10210000828304C09093070580930605FE013296F2
:1021100044C0FE01E20FF31F8193919322503109D5
:10212000398328833AC02091040530910505232B7B
:1021300041F42091090230910A0230930505209361
:10214000040520910702309108022115310541F460
:102150002DB73EB740910B0250910C02241B350B5A
:10216000E0910405F0910505E217F307A0F42E1B9A
:102170003F0B2817390778F0AC014E5F5F4F2417EB
:10218000350748F04E0F5F1F509305054093040537
:102190008193919302C0E0E0F0E0CF01DF91CF9115
:1021A0001F910F910895CF93DF93009709F481C099
:1021B000FC01329713821282A0910605B0910705A7
:1021C000109781F420813181820F931F20910405A3
:1021D000309105052817390751F5F0930505E0936F
:1021E000040567C0ED0120E030E0CE17DF0740F4C2
:1021F0004A815B819E0141155105F1F0EA01F5CF5D
:10220000D383C28340815181840F951FC817D9079A
:1022100059F488819981840F951F02969183808358
:102220008A819B81938382832115310529F4F09360
:102230000705E09306053DC0E901FB83EA83499168
:102240005991C40FD51FEC17FD0761F4808191816E
:10225000840F951F0296E901998388838281938177
:102260009B838A83E0E0F0E012968D919C91139716
:10227000009719F0FD01DC01F7CF8D919C9111972A
:102280009D012E5F3F4F820F931F209104053091D7
:1022900005052817390769F4309729F410920705C6
:1022A0001092060502C013821282B0930505A09316
:1022B0000405DF91CF9108956F927F928F929F9244
:1022C000AF92BF92CF92DF92EF92FF920F931F9344
:1022D000CF93DF93009781F4CB01DF91CF911F91D2
:1022E0000F91FF90EF90DF90CF90BF90AF909F90B5
:1022F0008F907F906F90BFCEFC01E60FF71F9C017F
:1023000022503109E217F30708F4A5C0EC01D90106
:102310000D911C91119706171707A8F005301105AC
:1023200008F497C0C80104978617970708F491C06E
:1023300002501109061B170B019311936D937C93A7
:10234000CF0131DF86C05B01A01AB10A4C01800EBB
:10235000911EA0910605B0910705612C712CE12C0E
:10236000F12C109709F446C08D919C911197A815F6
:10237000B905B1F56C0142E0C40ED11CCA14DB04EE
:1023800078F14C018A189B08640142E0C40ED11C0C
:102390001296BC9012971396AC91B5E0CB16D1046F
:1023A00040F0B282A38391828082D9016D937C93A5
:1023B00009C00E5F1F4F800F911FF9019183808329
:1023C000EB2DFA2FE114F10431F0D7011396FC93B1
:1023D000EE9312973EC0F0930705E093060539C0CF
:1023E0006816790608F43C017D0112960D90BC91A7
:1023F000A02DB7CF80910405909105058816990608
:10240000E1F466167706C8F48091070290910802FD
:10241000009741F48DB79EB740910B0250910C028A
:10242000841B950BE817F907B0F4F0930505E093CA
:102430000405F901718360830CC0CB011CDE7C01B3
:10244000009749F0A801BE011BD0CE01ACDEC70148
:1024500004C0CE0102C080E090E0DF91CF911F91D7
:102460000F91FF90EF90DF90CF90BF90AF909F9033
:102470008F907F906F90089581E090E0F894F4C27F
:10248000FB01DC0102C001900D9241505040D8F791
:102490000895FB01DC018D91019080190110D9F3A1
:1024A000990B0895FB01DC0101900D920020E1F7EA
:1024B00008950F931F93CF93DF93CDB7DEB72E9779
:1024C0000FB6F894DEBF0FBECDBF0E891F8986E020
:1024D0008C831A8309838FEF9FE79E838D83AE01E0
:1024E000465E5F4F688D798DCE01019610D0EF81E9
:1024F000F885E00FF11F10822E960FB6F894DEBF1C
:102500000FBECDBFDF91CF911F910F9108952F92F4
:102510003F924F925F926F927F928F929F92AF9273
:10252000BF92CF92DF92EF92FF920F931F93CF93C0
:10253000DF93CDB7DEB72B970FB6F894DEBF0FBE93
:10254000CDBF6C017B018A01FC0117821682838159
:1025500081FFBFC1CE0101963C01F6019381F701D5
:1025600093FD859193FF81917F01882309F4ADC18B
:10257000853239F493FD859193FF81917F018532F6
:1025800021F4B60190E0D6D1E8CF912C212C312C4A
:10259000FFE1F315D8F08B3279F038F4803279F01E
:1025A0008332A1F4232D20611DC08D3261F0803370
:1025B00069F4232D216016C0832D8260382EE32D0F
:1025C000E4603E2E2AC0F32DF8601DC037FC2DC0FC
:1025D00020ED280F2A3040F08E32B9F436FC75C158
:1025E000232D2064322E19C036FE06C08AE0989E44
:1025F000200D1124922E11C0EAE02E9E200D1124F0
:10260000222EF32DF0623F2E08C08C3621F4832D4C
:102610008068382E02C0883641F4F70193FD859119
:1026200093FF81917F018111B3CF982F9F7D9554A6
:10263000933028F40C5F1F4F9FE399830DC08336BE
:1026400031F0833771F0833509F055C020C0F801AF
:10265000808189830E5F1F4F88248394912C5301BE
:1026600012C02801F2E04F0E511CF801A080B18089
:1026700036FE03C0692D70E002C06FEF7FEFC50129
:102680004ED14C018201F32DFF773F2E15C028015A
:1026900022E0420E511CF801A080B18036FE03C03A
:1026A000692D70E002C06FEF7FEFC5012DD14C01A5
:1026B000F32DF0683F2E820133FC19C0822D90E08B
:1026C00088169906A0F4B60180E290E033D12A94EE
:1026D000F5CFF50137FC859137FE81915F01B60199
:1026E00090E028D121102A9421E0821A91088114C7
:1026F000910479F7E1C0843611F0893639F5F80193
:1027000037FE07C060817181828193810C5F1F4F0A
:1027100008C060817181072E000C880B990B0E5F39
:102720001F4FF32DFF763F2E97FF09C090958095A0
:10273000709561957F4F8F4F9F4FF0683F2E2AE035
:1027400030E0A30133D1882E861844C0853731F498
:10275000232D2F7EB22E2AE030E025C0932D997FC5
:10276000B92E8F36C1F018F4883579F0AEC08037B5
:1027700019F0883721F0A9C0E92FE061BE2EB4FE20
:102780000DC0FB2DF460BF2E09C034FE0AC0292FF6
:102790002660B22E06C028E030E005C020E130E01F
:1027A00002C020E132E0F801B7FE07C0608171810C
:1027B000828193810C5F1F4F06C06081718180E030
:1027C00090E00E5F1F4FA301F1D0882E8618FB2DDD
:1027D000FF773F2E36FE0DC0232D2E7FA22E8914AB
:1027E00058F434FE0BC032FC09C0832D8E7EA82E17
:1027F00005C0B82CA32C03C0B82C01C0B92CA4FE72
:102800000FC0FE01E80DF11D8081803321F49A2D67
:10281000997EA92E09C0A2FE06C0B394B39404C049
:102820008A2D867809F0B394A3FC10C0A0FE06C0E0
:10283000B21480F4280C922C9B180DC0B21458F4DA
:10284000B60180E290E076D0B394F8CFB21418F4D9
:102850002B1802C0982C212CA4FE0FC0B60180E3D7
:1028600090E068D0A2FE16C0A1FC03C088E790E00B
:1028700002C088E590E0B6010CC08A2D867851F040
:10288000A1FE02C08BE201C080E2A7FC8DE2B6018E
:1028900090E050D0891430F4B60180E390E04AD043
:1028A0009A94F8CF8A94F301E80DF11D8081B60166
:1028B00090E040D08110F6CF222009F44ECEB60130
:1028C00080E290E037D02A94F7CFF6018681978195
:1028D00002C08FEF9FEF2B960FB6F894DEBF0FBEAE
:1028E000CDBFDF91CF911F910F91FF90EF90DF90BF
:1028F000CF90BF90AF909F908F907F906F905F90A0
:102900004F903F902F900895FC01059061507040CA
:102910000110D8F7809590958E0F9F1F0895FC01A8
:102920006150704001900110D8F7809590958E0FFE
:102930009F1F08950F931F93CF93DF93FB01238174
:1029400021FD03C08FEF9FEF2CC022FF16C04681F0
:102950005781248135814217530744F4A081B18106
:102960009D012F5F3F4F318320838C9326813781D8
:102970002F5F3F4F3783268314C08B01EC01FB018F
:102980000084F185E02D1995892BE1F6D801169682
:102990008D919C911797019617969C938E931697FD
:1029A000CE01DF91CF911F910F910895FA01AA27CF
:1029B000283051F1203181F1E8946F936E7F6E5F82
:1029C0007F4F8F4F9F4FAF4FB1E03ED0B4E03CD030
:1029D000670F781F891F9A1FA11D680F791F8A1F13
:1029E000911DA11D6A0F711D811D911DA11D20D07A
:1029F00009F468943F912AE0269F11243019305D34
:102A00003193DEF6CF010895462F4770405D419324
:102A1000B3E00FD0C9F7F6CF462F4F70405D4A3371
:102A200018F0495D31FD4052419302D0A9F7EACF39
:102A3000B4E0A6959795879577956795BA95C9F768
:102A400000976105710508959B01AC010A2E06945B
:102A50005795479537952795BA95C9F7620F731F14
:102A6000841F951FA01D089511E0C5E1D1E000E08D
:102A700005C0802FFE01F7DA2196011DC631D1076E
:0A2A800080E00807B1F7F894FFCFDB
:102A8A001A161E1822201C000008058000000000EB
:102A9A0000DD014B0175012902A60184019801009C
:102AAA000000000C03E002B303B402D802C402B56A
:102ABA000200000000F5064B01B3034A01000000C2
:102ACA00009004C803F004313233343536373839CC
:102ADA002A30234641494C454420212121004661A0
:102AEA00696C6564202825642F2564290053756361
:0C2AFA0065737300313232313231330029
:020000023000CC
:10E000000D9489F10D94B2F10D94B2F10D94B2F129
:10E010000D94B2F10D94B2F10D94B2F10D94B2F1F0
:10E020000D94B2F10D94B2F10D94B2F10D94B2F1E0
:10E030000D94B2F10D94B2F10D94B2F10D94B2F1D0
:10E040000D94B2F10D94B2F10D94B2F10D94B2F1C0
:10E050000D94B2F10D94B2F10D94B2F10D94B2F1B0
:10E060000D94B2F10D94B2F10D94B2F10D94B2F1A0
:10E070000D94B2F10D94B2F10D94B2F10D94B2F190
:10E080000D94B2F10D94B2F10D94B2F10D94B2F180
:10E090000D94B2F10D94B2F10D94B2F10D94B2F170
:10E0A0000D94B2F10D94B2F10D94B2F10D94B2F160
:10E0B0000D94B2F10D94B2F10D94B2F10D94B2F150
:10E0C0000D94B2F10D94B2F10D94B2F10D94B2F140
:10E0D0000D94B2F10D94B2F10D94B2F10D94B2F130
:10E0E0000D94B2F141546D656761323536300041AF
:10E0F000726475696E6F206578706C6F72657220DE
:10E1000073746B3530305632206279204D4C530099
:10E11000426F6F746C6F616465723E004875683F52
:10E1200000436F6D70696C6564206F6E203D200048
:10E130004350552054797065202020203D20005FF9
:10E140005F4156525F415243485F5F3D2000415658
:10E1500052204C696243205665723D20004743437C
:10E160002056657273696F6E203D20004350552024
:10E1700049442020202020203D20004C6F7720663D
:10E18000757365202020203D20004869676820665F
:10E190007573652020203D200045787420667573D6
:10E1A00065202020203D20004C6F636B2066757336
:10E1B000652020203D20004D617220203720323024
:10E1C000313300312E362E3800342E332E350056A2
:10E1D00023202020414444522020206F7020636F70
:10E1E00064652020202020696E73747275637469E1
:10E1F0006F6E2061646472202020496E74657272B3
:10E20000757074006E6F20766563746F7200726A49
:10E210006D702020006A6D70200057686174207056
:10E220006F72743A00506F7274206E6F7420737541
:10E2300070706F72746564004D7573742062652030
:10E2400061206C6574746572002000577269747483
:10E25000696E672045450052656164696E672045B7
:10E26000450045452065727220636E743D00504F35
:10E27000525400303D5A65726F2061646472003FF1
:10E280003D43505520737461747300403D454550C3
:10E29000524F4D207465737400423D426C696E6B41
:10E2A000204C454400453D44756D70204545505215
:10E2B0004F4D00463D44756D7020464C415348001B
:10E2C000483D48656C70004C3D4C69737420492F83
:10E2D0004F20506F72747300513D51756974005234
:10E2E0003D44756D702052414D00563D73686F7707
:10E2F00020696E7465727275707420566563746FF0
:10E30000727300593D506F727420626C696E6B00BD
:10E310002A0011241FBECFEFD1E2DEBFCDBF01E046
:10E320000CBF12E0A0E0B2E0EEE1FDEF03E00BBFB6
:10E3300002C007900D92A030B107D9F712E0A0E01B
:10E34000B2E001C01D92AE30B107E1F70F9460F367
:10E350000D948DFE01E20EBF0FEF0DBF11241FBE05
:10E360000D9460F30D9400F020E030E040ED57E0B4
:10E3700005C0FA013197F1F72F5F3F4F2817390792
:10E38000C0F308959C01260F311DC901A0E0B0E043
:10E390002F5F3F4FABBFFC018791882361F08093D3
:10E3A000C6008091C00086FFFCCF8091C0008064D1
:10E3B0008093C000EACF08958DE08093C6008091DD
:10E3C000C00086FFFCCF8091C00080648093C000B5
:10E3D0008AE08093C6008091C00086FFFCCF8091C8
:10E3E000C00080648093C00008950F94C2F10F9420
:10E3F000DCF10895FC019081992359F09093C600B7
:10E400008091C00086FFFCCF8091C0008064809323
:10E41000C0003196992379F70895282F982F929567
:10E420009F70892F805D8A3308F0895F8093C600D2
:10E430008091C00086FFFCCF8091C00080648093F3
:10E44000C000822F8F70982F905D9A3308F0995FEB
:10E450009093C6008091C00086FFFCCF8091C000E1
:10E4600080648093C00008959C01FB01853691056E
:10E470001CF46330710594F0C90164E670E00F94F8
:10E480002EFE605D7F4F6093C6008091C00086FFC6
:10E49000FCCF8091C00080648093C0002B30310598
:10E4A00014F43297B4F0C90164E670E00F942EFEC4
:10E4B0006AE070E00F942EFE605D7F4F6093C600AF
:10E4C0008091C00086FFFCCF8091C0008064809363
:10E4D000C000C9016AE070E00F942EFEC0968093E0
:10E4E000C6008091C00086FFFCCF8091C000806490
:10E4F0008093C00008951F93182F8EE692EE60E07F
:10E500000F94C2F11093C6008091C00086FFFCCF2B
:10E510008091C00080648093C0000F94DCF11F9153
:10E5200008952F923F924F925F926F927F928F92B7
:10E530009F92AF92BF92CF92DF92EF92FF920F9392
:10E540001F93DF93CF93CDB7DEB762970FB6F894E2
:10E55000DEBF0FBECDBF382E622ECA01DB015C01CB
:10E560006D01772420E2222E2E010894411C511CBB
:10E570008BC081E0A81680E0B80681E0C80680E084
:10E58000D80628F0C601AA27BB270F940DF2BB2797
:10E59000AD2D9C2D8B2D0F940DF28A2D0F940DF225
:10E5A0002092C6008091C00086FFFCCF8091C00001
:10E5B00080648093C0009DE29093C6008091C0006B
:10E5C00086FFFCCF8091C00080648093C0002092C1
:10E5D000C6008091C00086FFFCCF8091C00080649F
:10E5E0008093C00019828601750188249924A1E0D6
:10E5F0003A1651F03A1620F0B2E03B1661F409C029
:10E600000BBFF701779007C0C7010F9477FE782EF4
:10E6100002C0F7017080872D0F940DF22092C60082
:10E620008091C00086FFFCCF8091C0008064809301
:10E63000C000872D8052F401EF70F0708F3520F408
:10E64000E40DF51D708204C0E40DF51D8EE280839B
:10E650000894E11CF11C011D111D0894811C911CE2
:10E6600090E18916910409F0C2CF80E190E0A0E02A
:10E67000B0E0A80EB91ECA1EDB1E198AC2010F9493
:10E68000FAF10F94DCF16A94662009F072CF629679
:10E690000FB6F894DEBF0FBECDBFCF91DF911F91B3
:10E6A0000F91FF90EF90DF90CF90BF90AF909F9031
:10E6B0008F907F906F905F904F903F902F90089534
:10E6C0002F923F924F925F926F927F928F929F9282
:10E6D000AF92BF92CF92DF92EF92FF920F931F9370
:10E6E000DF93CF93CDB7DEB7CD53D1400FB6F894BB
:10E6F000DEBF0FBECDBF01E20EBF0FEF0DBF94B75F
:10E70000F894A89514BE80916000886180936000A1
:10E7100010926000789493FF05C0E0910002F091A0
:10E7200001021995279A2F9A8091C00082608093E8
:10E73000C00080E18093C40088E18093C1000000A4
:10E74000EE24FF24870144E0A42EB12CCC24DD2448
:10E7500024C0C5010197F1F70894E11CF11C011DCB
:10E76000111D21E2E2162EE4F20620E0020720E06D
:10E77000120718F031E0C32ED12CC801B70127ECE5
:10E780003BE140E050E00F9441FE611571058105C9
:10E79000910519F485B1805885B98091C00087FD35
:10E7A00003C0C114D104A9F2A6014F5F5F4FC25E3E
:10E7B000DE4F59834883CE51D140C25EDE4F8881FF
:10E7C0009981CE51D140019711F00D9410FEC05D9A
:10E7D000DE4F19821882C053D14060E0C15DDE4F28
:10E7E0001882CF52D14088249924C35DDE4F19820C
:10E7F0001882CD52D140C05EDE4F188219821A8233
:10E800001B82C052D140CE5CDE4F188219821A8220
:10E810001B82C253D140EE24FF2487010BBFF701B6
:10E8200007911691C45CDE4F19830883CC53D14005
:10E830000D940BFEC25EDE4F28813981CE51D1404E
:10E840002130310509F52091C600C25EDE4F1982E4
:10E850001882CE51D14022C02F5F3F4F4F4F5F4FA4
:10E86000213082E138078AE7480780E0580780F0C6
:10E87000C45CDE4FE881F981CC53D140EF5FFF4F9C
:10E8800019F0EE27FF27099420E030E040E050E047
:10E890008091C00087FFE0CF2091C600C35DDE4FAE
:10E8A00048815981CD52D1404F5F5F4FC35DDE4FEC
:10E8B00059834883CD52D140213209F063C64A3092
:10E8C000510508F05FC60894811C911C53E0851621
:10E8D000910409F059C600E010E018C081E280936D
:10E8E000C6008091C00086FFFCCF8091C00080648C
:10E8F0008093C0002F5F3F4F2931310579F70F9486
:10E90000DCF10F5F1F4F0530110519F020E030E0FA
:10E91000E5CF10920A0210920B0210920C02109294
:10E920000D02109206021092070210920802109235
:10E930000902109202021092030210920402109235
:10E9400005028FEE90EE60E00F94F5F180E191EE1C
:10E9500060E00F94C2F18091C00087FFFCCF9091DE
:10E96000C600903608F09F759032B8F09093C600BC
:10E970008091C00086FFFCCF8091C00080648093AE
:10E98000C000A0E2A093C6008091C00086FFFCCF2B
:10E990008091C00080648093C000983409F4D7C18E
:10E9A0009934B8F4923409F459C1933458F490333B
:10E9B00019F1903308F4E3C59F33A1F1903409F0C5
:10E9C000DEC5BDC0953409F470C1963409F0D7C5D1
:10E9D00098C1923509F42BC2933538F49C3409F46C
:10E9E000F5C1913509F0CBC518C2963509F445C279
:10E9F000993509F0C4C567C483E792EE62E00F94CD
:10EA0000F5F110920602109207021092080210927D
:10EA1000090210920A0210920B0210920C0210923C
:10EA20000D0213C18FE792EE62E00F94F5F18FEEC5
:10EA300090EE60E00F94F5F181E291EE60E00F94CA
:10EA4000C2F187EB91EE60E00F94F5F180E391EE77
:10EA500060E00F94C2F184EE90EE60E00F94F5F167
:10EA60008FE391EE60E00F94C2F186E090E061E008
:10EA700070E00F9434F20F94DCF18DE591EE60E0DC
:10EA80000F94C2F189EC91EE60E00F94F5F18EE401
:10EA900091EE60E00F94C2F183EC91EE60E00F9490
:10EAA000F5F18CE691EE60E00F94C2F18EE10F94E7
:10EAB0000DF288E90F940DF281E00F940DF20F949E
:10EAC000DCF18BE791EE60E00F94C2F119E0E0E039
:10EAD000F0E010935700E4918E2F0F940DF20F94F5
:10EAE000DCF18AE891EE60E00F94C2F1E3E0F0E03F
:10EAF00010935700E4918E2F0F940DF20F94DCF1D8
:10EB000089E991EE60E00F94C2F1E2E0F0E0109349
:10EB10005700E4918E2F0F940DF20F94DCF188EAE8
:10EB200091EE60E00F94C2F1E1E0F0E01093570045
:10EB30001491812F0F940DF20F94DCF107CF8BE825
:10EB400092EE62E00F94F5F18BE492EE60E00F94A8
:10EB5000F5F10F94DCF100E010E019C0C8016F2D51
:10EB60000F947FFEFF2031F489E492EE60E00F9471
:10EB7000C2F10BC0F092C6008091C00086FFFCCFAE
:10EB80008091C00080648093C0000F5F1F4FC80158
:10EB900081519F41A0E0B0E0ABBFFC01F790BAE229
:10EBA000FB1621F0E2E000301E07C1F60F94DCF105
:10EBB0000F94DCF187E592EE60E00F94F5F10F948D
:10EBC000DCF1CC24DD2400E010E01EC0C8010F946D
:10EBD00077FEF82E882331F489E492EE60E00F94FA
:10EBE000C2F10BC08093C6008091C00086FFFCCFAD
:10EBF0008091C00080648093C000FE1419F00894D6
:10EC0000C11CD11C0F5F1F4FC80181519F41A0E063
:10EC1000B0E0ABBFFC01E790FAE2EF1621F022E092
:10EC20000030120799F60F94DCF10F94DCF182E6C4
:10EC300092EE60E00F94C2F1C60161E070E00F94C3
:10EC400034F20F94DCF10F94DCF110920202109276
:10EC50000302109204021092050278CE89E992EE26
:10EC600062E00F94F5F1279A2F9A16C02F9880E052
:10EC700090E0E0EDF7E03197F1F7019684369105E9
:10EC8000C1F72F9A80E090E0E0EDF7E03197F1F7DF
:10EC9000019684369105C1F78091C00087FFE6CFC9
:10ECA0008091C00087FFFCCF64C485EA92EE62E0E9
:10ECB0000F94F5F140910202509103026091040219
:10ECC0007091050281E020E10F9491F2809102029F
:10ECD00090910302A0910402B091050280509F4FD1
:10ECE000AF4FBF4F8093020290930302A0930402A0
:10ECF000B093050280509041A040B04008F426CE69
:10ED0000A4CF83EB92EE62E00F94F5F140910602FE
:10ED100050910702609108027091090280E020E1A1
:10ED20000F9491F28091060290910702A09108023F
:10ED3000B091090280509F4FAF4FBF4F80930602A2
:10ED400090930702A0930802B0930902FFCD80ECD4
:10ED500092EE62E00F94F5F183E792EE60E00F949B
:10ED6000F5F18FE792EE60E00F94F5F18BE892EE0B
:10ED700060E00F94F5F189E992EE60E00F94F5F10F
:10ED800085EA92EE60E00F94F5F183EB92EE60E09D
:10ED90000F94F5F180EC92EE60E00F94F5F187ECC2
:10EDA00092EE60E00F94F5F188ED92EE60E00F9442
:10EDB000F5F18FED92EE60E00F94F5F18AEE92EEB0
:10EDC00060E00F94F5F183E093EEBDCD87EC92EE19
:10EDD00062E00F94F5F181E40F947BF282E40F94EA
:10EDE0007BF283E40F947BF284E40F947BF285E45E
:10EDF0000F947BF286E40F947BF287E40F947BF20E
:10EE000088E40F947BF28AE40F947BF28BE40F94F6
:10EE10007BF28CE40F947BF299CD88ED92EE62E068
:10EE20000F94F5F1772473948824992409C48FED05
:10EE300092EE62E00F94F5F140910A0250910B02BC
:10EE400060910C0270910D0282E020E10F9491F22A
:10EE500080910A0290910B02A0910C02B0910D02D8
:10EE600080509F4FAF4FBF4F80930A0290930B0289
:10EE7000A0930C02B0930D0269CD8AEE92EE62E08F
:10EE80000F94F5F184EE90EE60E00F94F5F18FECC5
:10EE900091EE60E00F94F5F1662477244301CC5D98
:10EEA000DE4F19821882C452D140D401C301B695F5
:10EEB000A79597958795CA5DDE4F88839983AA8326
:10EEC000BB83C652D140CC5DDE4FA881B981C4520C
:10EED000D1401196CC5DDE4FB983A883C452D14096
:10EEE000CD0162E070E00F9434F2B0E2B093C6005E
:10EEF0008091C00086FFFCCF8091C0008064809329
:10EF0000C000EDE2E093C6008091C00086FFFCCF18
:10EF10008091C00080648093C000F0E2F093C6004E
:10EF20008091C00086FFFCCF8091C00080648093F8
:10EF3000C000CA5DDE4FE880F9800A811B81C6529D
:10EF4000D140BB27A12F902F8F2D0F940DF2CA5DBA
:10EF5000DE4F8881C652D1400F940DF2B0E2FB2EF5
:10EF6000F092C6008091C00086FFFCCF8091C00067
:10EF700080648093C0000DE30093C6008091C000C0
:10EF800086FFFCCF8091C00080648093C00010E2B7
:10EF90001093C6008091C00086FFFCCF8091C00016
:10EFA00080648093C0008BBEF3012791C65DDE4F65
:10EFB0002883CA52D140A22EBB24CC24DD2408943D
:10EFC000611C711C811C911C8BBEF3018791282E42
:10EFD0003324442455240894611C711C811C911C09
:10EFE0008BBEF3013791C55DDE4F3883CB52D140E4
:10EFF0000894611C711C811C911C8BBEF30147910C
:10F00000C45DDE4F4883CC52D140ADEFEA2EAFEF66
:10F01000FA2EAFEF0A2FAFEF1A2F6E0C7F1C801E57
:10F02000911E142D032DF22CEE24EA0CFB1C0C1D5A
:10F030001D1D0F940DF220E22093C6008091C000A8
:10F0400086FFFCCF8091C00080648093C000C65DC5
:10F05000DE4F8881CA52D1400F940DF230E23093D6
:10F06000C6008091C00086FFFCCF8091C000806404
:10F070008093C000C45DDE4F8881CC52D1400F9494
:10F080000DF240E24093C6008091C00086FFFCCFA5
:10F090008091C00080648093C000C55DDE4F888190
:10F0A000CB52D1400F940DF250E25093C6008091A4
:10F0B000C00086FFFCCF8091C00080648093C000B8
:10F0C0008FEFE8168FEFF80680E0080780E018075A
:10F0D00031F484E092EE60E00F94C2F1DFC0D80119
:10F0E000C7018070907CA070B0708050904CA040A0
:10F0F000B040D1F52FEF3FE340E050E0E222F322B1
:10F1000004231523CA5DDE4FA880B980CA80DB8046
:10F11000C652D140AE0CBF1CC01ED11EAA0CBB1CD7
:10F12000CC1CDD1C8EE092EE60E00F94C2F1BB2798
:10F13000A12F902F8F2D0F940DF28E2D0F940DF285
:10F1400030E23093C6008091C00086FFFCCF8091F2
:10F15000C00080648093C0004EE34093C60080915D
:10F16000C00086FFFCCF87C08EE09EEFA0E0B0E03D
:10F17000E822F9220A231B239CE0E91694E9F90608
:10F1800090E0090790E0190709F088C0C45DDE4FE0
:10F19000A881CC52D140EA2EFF2400E010E0102FCD
:10F1A0000F2DFE2CEE24C55DDE4FB881CB52D14031
:10F1B000EB0EF11C011D111DD601C501817090706F
:10F1C000A070B070DC0199278827E80EF91E0A1F8D
:10F1D0001B1F20EF30E040E050E0A222B322C42207
:10F1E000D52241E1AA0CBB1CCC1CDD1C4A95D1F7F1
:10F1F000EA0CFB1C0C1D1D1D81E090E0A0E0B0E0BE
:10F20000282239224A225B2235E1220C331C441C7D
:10F21000551C3A95D1F7E20CF31C041D151D57013E
:10F220006801AA0CBB1CCC1CDD1C85E192EE60E0E1
:10F230000F94C2F1C801AA27BB270F940DF2BB2778
:10F24000A12F902F8F2D0F940DF28E2D0F940DF274
:10F2500090E29093C6008091C00086FFFCCF809121
:10F26000C00080648093C000AEE3A093C60080918C
:10F27000C00086FFFCCF8091C00080648093C000F6
:10F28000C601AA27BB270F940DF2BB27AD2D9C2DDD
:10F290008B2D0F940DF28A2D0F940DF20F94DCF14B
:10F2A000CC5DDE4FE881F981C452D140F99709F471
:10F2B0004DCBF4E0EF2EF12C012D112D6E0C7F1CA7
:10F2C000801E911EF2CD83E093EE62E00F94F5F183
:10F2D0008AE192EE60E00F94C2F18091C00087FF56
:10F2E000FCCF1091C6001F751093C6008091C0001E
:10F2F00086FFFCCF8091C00080648093C0000F9493
:10F30000DCF1812F81548A3108F036C1163409F4BA
:10F3100095C0173490F4133409F44EC0143430F40B
:10F320001134F1F0123409F01DC130C0143409F465
:10F3300059C0153409F016C16BC01A3409F4C4C0A1
:10F340001B3438F4173409F48FC0183409F00AC19B
:10F35000A1C01B3409F4D2C01C3409F003C1E8C0B9
:10F360008FEF81B90DC082B1809582B980E090E0C5
:10F37000E0EDF7E03197F1F70196883C9105C1F790
:10F380008091C00087FFEFCF12B8EFC08FEF84B934
:10F390000DC085B1809585B980E090E0E0EDF7E0A3
:10F3A0003197F1F70196883C9105C1F78091C00033
:10F3B00087FFEFCF15B8D9C08FEF87B90DC088B1DF
:10F3C000809588B980E090E0E0EDF7E03197F1F7C3
:10F3D0000196883C9105C1F78091C00087FFEFCF6F
:10F3E00018B8C3C08FEF8AB90DC08BB180958BB9A7
:10F3F00080E090E0E0EDF7E03197F1F70196883C8E
:10F400009105C1F78091C00087FFEFCF1BB8ADC059
:10F410008FEF8DB90DC08EB180958EB980E090E0F0
:10F42000E0EDF7E03197F1F70196883C9105C1F7DF
:10F430008091C00087FFEFCF1EB897C08FEF80BBD1
:10F440000DC081B3809581BB80E090E0E0EDF7E0F6
:10F450003197F1F70196883C9105C1F78091C00082
:10F4600087FFEFCF11BA81C08FEF83BB0DC084B38C
:10F47000809584BB80E090E0E0EDF7E03197F1F714
:10F480000196883C9105C1F78091C00087FFEFCFBE
:10F4900014BA6BC08FEF809301010FC080910201FD
:10F4A00080958093020180E090E0E0EDF7E03197F5
:10F4B000F1F70196883C9105C1F78091C00087FF64
:10F4C000EDCF1092020151C08FEF809304010FC065
:10F4D0008091050180958093050180E090E0E0ED4A
:10F4E000F7E03197F1F70196883C9105C1F78091DB
:10F4F000C00087FFEDCF1092050137C08FEF8093DA
:10F5000007010FC08091080180958093080180E079
:10F5100090E0E0EDF7E03197F1F70196883C910536
:10F52000C1F78091C00087FFEDCF109208011DC088
:10F530008FEF80930A010FC080910B01809580931B
:10F540000B0180E090E0E0EDF7E03197F1F70196F4
:10F55000883C9105C1F78091C00087FFEDCF1092E4
:10F560000B0103C085E292EEEEC98091C00087FFD7
:10F57000FCCF8091C600EAC988E392EEE4C98CE131
:10F5800091EEE1C988249924933011F1943028F444
:10F59000913089F09230B8F408C0953061F195301F
:10F5A000F0F0963009F048C043C02B3109F042C951
:10F5B00091E06BE13FC96227C15DDE4F2883CF52E6
:10F5C000D14092E037C9B22FA0E0622793E032C960
:10F5D000822F90E0A82BB92B622794E02BC92E3004
:10F5E00009F039C3622795E0C05DDE4F19821882A9
:10F5F000C053D1401FC9E1E0F0E0EC0FFD1FC05D3A
:10F60000DE4F08811981C053D140E00FF11F2083E4
:10F610000F5F1F4FC05DDE4F19830883C053D14079
:10F6200062270A171B0709F005C9D80196E002C92D
:10F63000261709F010C303C0973009F0FBC87724E0
:10F640009981933109F412C19431C8F4963009F4C8
:10F65000D8C0973050F4923009F406C1933009F4C1
:10F660006DC0913009F059C253C0913109F477C08F
:10F67000923108F0BBC0903109F04FC2F5C098310B
:10F6800009F487C0993150F4953109F4EFC09531F0
:10F6900008F4C6C1963109F040C2C2C19A3109F4DA
:10F6A0006CC09A3108F491C09B3109F45BC09D3164
:10F6B00009F033C29D81903359F48F81882311F46E
:10F6C0009EE11CC0813011F091E018C098E916C08D
:10F6D000892F807591F0903539F4E0E0F0E089E011
:10F6E0008093570094910AC0983539F4E3E0F0E034
:10F6F00089E080935700949101C090E01A821B82A8
:10F700008D818C831D829E831F8227E030E009C299
:10F710001A8288E08B8381E48C8386E58D8382E581
:10F720008E8389E48F8383E5888780E589878FE5E9
:10F730008A8782E38B872BE030E0F3C18A818139AD
:10F7400041F0823941F0803911F48FE005C080E04A
:10F7500003C082E001C08AE01A828B8344C0772410
:10F76000739482C08D81882311F48EE12CC0813086
:10F7700011F081E028C088E926C01A82E1E0F0E0BB
:10F7800089E08093570084918B831C8224E030E0D1
:10F79000C8C18B81803589F48C81883039F4E2E0EE
:10F7A000F0E089E08093570084910DC0E0E0F0E044
:10F7B00089E080935700849106C0E3E0F0E089E09F
:10F7C0008093570084911A82DFCF8D81836C99E0FA
:10F7D000E1E0F0E0082E90935700E89507B600FCB2
:10F7E000FDCF1A821B8223E030E09BC180EC8A832C
:10F7F000CE5CDE4F188219821A821B82C253D1401E
:10F800008EC18A8190E0A0E0B0E0582F44273327D2
:10F8100022278B8190E0A0E0B0E0DC0199278827C7
:10F82000282B392B4A2B5B2B8D8190E0A0E0B0E098
:10F83000282B392B4A2B5B2B8C8190E0A0E0B0E089
:10F84000BA2FA92F982F8827282B392B4A2B5B2BCF
:10F85000220F331F441F551FC05EDE4F288339839C
:10F860004A835B83C052D1401A8259C13A81C95C34
:10F87000DE4F3883C753D140CA5CDE4F1882C6536F
:10F88000D1408B81C82EDD24CA5CDE4F488159816E
:10F89000C653D140C42AD52A933109F082C0CE5C28
:10F8A000DE4F88819981AA81BB81C253D1408050AB
:10F8B000904CA340B04030F583E0CE5CDE4FE88052
:10F8C000F9800A811B81C253D140F70100935B008C
:10F8D00080935700E89507B600FCFDCFCE5CDE4F65
:10F8E000088119812A813B81C253D14000501F4FAA
:10F8F0002F4F3F4FCE5CDE4F088319832A833B8313
:10F90000C253D140C05EDE4F488159816A817B81FC
:10F91000C052D140DE011B9631E08C9111962C91A2
:10F9200011971296C75CDE4F2883C953D140C85C3B
:10F93000DE4F1882C853D14090E0C85CDE4FE881AA
:10F94000F981C853D1408E2B9F2B0C01FA01609393
:10F950005B0030935700E89511244E5F5F4F6F4F67
:10F960007F4F0EEFE02E0FEFF02ECE0CDF1CC114F8
:10F97000D10499F685E0C05EDE4F088119812A81A5
:10F980003B81C052D140F80120935B008093570027
:10F99000E89507B600FCFDCF81E180935700E8951C
:10F9A00035C0C05EDE4F88819981AA81BB81C0527B
:10F9B000D140B695A795979587957C018601ABE0D8
:10F9C000AA2EB12CAC0EBD1E0BC0D5016D915D01F0
:10F9D000C7010F947FFE0894E11CF11C01501040F8
:10F9E0000115110591F7A60160E070E0440F551F65
:10F9F000661F771FC05EDE4FE880F9800A811B8199
:10FA0000C052D1404E0D5F1D601F711F1A82C05E33
:10FA1000DE4F488359836A837B83C052D1407FC0C5
:10FA2000FA80C55CDE4FF882CB53D140C65CDE4F16
:10FA30001882CA53D1408B81C82EDD24C65CDE4FAC
:10FA400008811981CA53D140C02AD12A1A828981DA
:10FA5000BE016D5F7F4F843121F59601C05EDE4FA0
:10FA6000E880F9800A811B81C052D1400BBFF701A9
:10FA700087919691DB018C9311969C936E5F7F4FDB
:10FA8000D801C7010296A11DB11DC05EDE4F88835B
:10FA90009983AA83BB83C052D14022503040F1F6F3
:10FAA00036C0C05EDE4F288139814A815B81C052F9
:10FAB000D1400894C108D108760100E010E0089414
:10FAC000C11CD11C0894E11CF11C011D111DE20E8A
:10FAD000F31E041F151F21BDBB27A52F942F832FB5
:10FAE00082BD2F5F3F4F4F4F5F4FF89A80B5DB01CC
:10FAF0008D93BD012E153F054007510761F7C05E8C
:10FB0000DE4F288339834A835B83C052D1409601FC
:10FB10002D5F3F4FFB01108204C080EC8A8322E0FE
:10FB200030E08BE18093C6008091C00086FFFCCF5F
:10FB30008091C00080648093C000C15DDE4FF88179
:10FB4000CF52D140F093C6008091C00086FFFCCF19
:10FB50008091C00080648093C000432F3093C60022
:10FB60008091C00086FFFCCF8091C00080648093AC
:10FB7000C000922F2093C6008091C00086FFFCCF6A
:10FB80008091C00080648093C0008EE08093C600A6
:10FB90008091C00086FFFCCF8091C000806480937C
:10FBA000C00065E1C15DDE4FE880CF52D1406E25D7
:10FBB00069276427FE01319610C090819093C6009A
:10FBC0008091C00086FFFCCF31968091C000806498
:10FBD0008093C0006927215030402115310569F715
:10FBE0006093C6008091C00086FFFCCF8091C0006A
:10FBF00080648093C00085B1805885B9772081F4F6
:10FC0000C15DDE4F0881CF52D1400F5FC15DDE4F35
:10FC10000883CF52D14090E0A0E0B0E00D941AF4F8
:10FC200027982F9880E090E020ED37E0F901319798
:10FC3000F1F7019684369105C9F700008091C00064
:10FC40008D7F8093C00081E180935700E895EE2777
:10FC5000FF270994FFCF90E00D941AF497FB092E2B
:10FC600007260AD077FD04D02ED006D000201AF443
:10FC7000709561957F4F0895F6F7909581959F4F08
:10FC80000895A1E21A2EAA1BBB1BFD010DC0AA1FDD
:10FC9000BB1FEE1FFF1FA217B307E407F50720F0F5
:10FCA000A21BB30BE40BF50B661F771F881F991F70
:10FCB0001A9469F760957095809590959B01AC01B9
:10FCC000BD01CF010895AA1BBB1B51E107C0AA1FAC
:10FCD000BB1FA617B70710F0A61BB70B881F991FED
:10FCE0005A95A9F780959095BC01CD010895F99991
:10FCF000FECF92BD81BDF89A992780B50895262F31
:10FD0000F999FECF1FBA92BD81BD20BD0FB6F89400
:0EFD1000FA9AF99A0FBE01960895F894FFCF63
:040000033000E000E9
:00000001FF
